{
  "contractName": "Storing",
  "abi": [
    {
      "inputs": [],
      "payable": false,
      "stateMutability": "nonpayable",
      "type": "constructor"
    },
    {
      "constant": true,
      "inputs": [],
      "name": "blockcount",
      "outputs": [
        {
          "internalType": "uint256",
          "name": "",
          "type": "uint256"
        }
      ],
      "payable": false,
      "stateMutability": "view",
      "type": "function"
    },
    {
      "constant": true,
      "inputs": [
        {
          "internalType": "uint256",
          "name": "",
          "type": "uint256"
        }
      ],
      "name": "tasks",
      "outputs": [
        {
          "internalType": "uint256",
          "name": "id",
          "type": "uint256"
        },
        {
          "internalType": "string",
          "name": "hash",
          "type": "string"
        }
      ],
      "payable": false,
      "stateMutability": "view",
      "type": "function"
    },
    {
      "constant": false,
      "inputs": [
        {
          "internalType": "uint256",
          "name": "_id",
          "type": "uint256"
        },
        {
          "internalType": "string",
          "name": "_hash",
          "type": "string"
        }
      ],
      "name": "createHash",
      "outputs": [],
      "payable": false,
      "stateMutability": "nonpayable",
      "type": "function"
    }
  ],
  "bytecode": "0x60806040526000805534801561001457600080fd5b50610046620f91426040518060400160405280600681526020016530b131b232b360d11b81525061004b60201b60201c565b610132565b60008054600190810182556040805180820182528581526020808201868152878652848252929094208151815591518051919492936100909390850192910190610097565b5050505050565b828054600181600116156101000203166002900490600052602060002090601f016020900481019282601f106100d857805160ff1916838001178555610105565b82800160010185558215610105579182015b828111156101055782518255916020019190600101906100ea565b50610111929150610115565b5090565b61012f91905b80821115610111576000815560010161011b565b90565b610373806101416000396000f3fe608060405234801561001057600080fd5b50600436106100415760003560e01c80638d97767214610046578063dbc1bc19146100e2578063ec35f3d2146100fc575b600080fd5b6100636004803603602081101561005c57600080fd5b50356101ab565b6040518083815260200180602001828103825283818151815260200191508051906020019080838360005b838110156100a657818101518382015260200161008e565b50505050905090810190601f1680156100d35780820380516001836020036101000a031916815260200191505b50935050505060405180910390f35b6100ea610251565b60408051918252519081900360200190f35b6101a96004803603604081101561011257600080fd5b8135919081019060408101602082013564010000000081111561013457600080fd5b82018360208201111561014657600080fd5b8035906020019184600183028401116401000000008311171561016857600080fd5b91908080601f016020809104026020016040519081016040528093929190818152602001838380828437600092019190915250929550610257945050505050565b005b600160208181526000928352604092839020805481840180548651600296821615610100026000190190911695909504601f810185900485028601850190965285855290949193929091908301828280156102475780601f1061021c57610100808354040283529160200191610247565b820191906000526020600020905b81548152906001019060200180831161022a57829003601f168201915b5050505050905082565b60005481565b600080546001908101825560408051808201825285815260208082018681528786528482529290942081518155915180519194929361029c93908501929101906102a3565b5050505050565b828054600181600116156101000203166002900490600052602060002090601f016020900481019282601f106102e457805160ff1916838001178555610311565b82800160010185558215610311579182015b828111156103115782518255916020019190600101906102f6565b5061031d929150610321565b5090565b61033b91905b8082111561031d5760008155600101610327565b9056fea265627a7a7231582023e597d7d73778f2063bae76ac0e8db1f96862acfd7af4aec1a8079aa439353d64736f6c63430005100032",
  "source": "pragma solidity >=0.5.0;\r\ncontract Storing {\r\n    uint public blockcount=0;\r\n    struct HashMake{\r\n        uint id;\r\n        string hash;\r\n    }\r\n    mapping(uint => HashMake ) public tasks;\r\n    constructor() public {\r\n        createHash(1020226,'abcdef');\r\n    }\r\n    function createHash(uint _id,string memory _hash) public {\r\n        blockcount=blockcount+1;\r\n        tasks[_id]=HashMake(_id,_hash);\r\n    }\r\n\r\n}",
  "sourcePath": "D:\\paul\\Coding_related\\WebDev\\CertificateHack\\certifications\\contracts\\Storing.sol",
  "compiler": {
    "name": "solc",
    "version": "0.5.16+commit.9c3226ce.Emscripten.clang"
  },
  "schemaVersion": "3.4.3",
  "updatedAt": "2022-08-14T09:10:26.710Z",
  "networkType": "ethereum",
  "devdoc": {
    "methods": {}
  },
  "userdoc": {
    "methods": {}
  }
}