{
  "contractName": "Storing",
  "abi": [
    {
      "constant": true,
      "inputs": [
        {
          "name": "",
          "type": "uint256"
        }
      ],
      "name": "tasks",
      "outputs": [
        {
          "name": "id",
          "type": "uint256"
        },
        {
          "name": "hash",
          "type": "string"
        }
      ],
      "payable": false,
      "stateMutability": "view",
      "type": "function",
      "signature": "0x8d977672"
    },
    {
      "constant": true,
      "inputs": [],
      "name": "blockcount",
      "outputs": [
        {
          "name": "",
          "type": "uint256"
        }
      ],
      "payable": false,
      "stateMutability": "view",
      "type": "function",
      "signature": "0xdbc1bc19"
    },
    {
      "inputs": [],
      "payable": false,
      "stateMutability": "nonpayable",
      "type": "constructor",
      "signature": "constructor"
    },
    {
      "constant": false,
      "inputs": [
        {
          "name": "_id",
          "type": "uint256"
        },
        {
          "name": "_hash",
          "type": "string"
        }
      ],
      "name": "createHash",
      "outputs": [],
      "payable": false,
      "stateMutability": "nonpayable",
      "type": "function",
      "signature": "0xec35f3d2"
    }
  ],
  "bytecode": "0x60806040526000805534801561001457600080fd5b50610066620f91426040805190810160405280600681526020017f616263646566000000000000000000000000000000000000000000000000000081525061006b640100000000026401000000009004565b61014c565b6040805180820182528381526020808201848152600086815260018084529490208351815590518051939491936100aa939285019291909101906100b1565b5050505050565b828054600181600116156101000203166002900490600052602060002090601f016020900481019282601f106100f257805160ff191683800117855561011f565b8280016001018555821561011f579182015b8281111561011f578251825591602001919060010190610104565b5061012b92915061012f565b5090565b61014991905b8082111561012b5760008155600101610135565b90565b6103a08061015b6000396000f3fe6080604052600436106100565763ffffffff7c01000000000000000000000000000000000000000000000000000000006000350416638d977672811461005b578063dbc1bc1914610104578063ec35f3d21461012b575b600080fd5b34801561006757600080fd5b506100856004803603602081101561007e57600080fd5b50356101e7565b6040518083815260200180602001828103825283818151815260200191508051906020019080838360005b838110156100c85781810151838201526020016100b0565b50505050905090810190601f1680156100f55780820380516001836020036101000a031916815260200191505b50935050505060405180910390f35b34801561011057600080fd5b5061011961028d565b60408051918252519081900360200190f35b34801561013757600080fd5b506101e56004803603604081101561014e57600080fd5b8135919081019060408101602082013564010000000081111561017057600080fd5b82018360208201111561018257600080fd5b803590602001918460018302840111640100000000831117156101a457600080fd5b91908080601f016020809104026020016040519081016040528093929190818152602001838380828437600092019190915250929550610293945050505050565b005b600160208181526000928352604092839020805481840180548651600296821615610100026000190190911695909504601f810185900485028601850190965285855290949193929091908301828280156102835780601f1061025857610100808354040283529160200191610283565b820191906000526020600020905b81548152906001019060200180831161026657829003601f168201915b5050505050905082565b60005481565b6040805180820182528381526020808201848152600086815260018084529490208351815590518051939491936102d2939285019291909101906102d9565b5050505050565b828054600181600116156101000203166002900490600052602060002090601f016020900481019282601f1061031a57805160ff1916838001178555610347565b82800160010185558215610347579182015b8281111561034757825182559160200191906001019061032c565b50610353929150610357565b5090565b61037191905b80821115610353576000815560010161035d565b9056fea165627a7a72305820a7a2ff6267ccd286aa35dbe5274901034dd024a5cd71e1d5f6381707414cf2c70029",
  "source": "pragma solidity ^0.5.0;\r\ncontract Storing {\r\n    uint public blockcount=0;\r\n    struct HashMake{\r\n        uint id;\r\n        string hash;\r\n    }\r\n    mapping(uint => HashMake ) public tasks;\r\n    constructor() public {\r\n        createHash(1020226,'abcdef');\r\n    }\r\n    function createHash(uint _id,string memory _hash) public {\r\n        tasks[_id]=HashMake(_id,_hash);\r\n    }\r\n}",
  "sourcePath": "C:/Users/Dell/Desktop/PKPV/contracts/Storing.sol",
  "compiler": {
    "name": "solc",
    "version": "0.5.0+commit.1d4f565a.Emscripten.clang"
  },
  "schemaVersion": "3.0.1",
  "updatedAt": "2022-08-12T16:08:24.933Z",
  "devdoc": {
    "methods": {}
  },
  "userdoc": {
    "methods": {}
  }
}