{
  "contractName": "Storing",
  "abi": [
    {
      "inputs": [],
      "payable": false,
      "stateMutability": "nonpayable",
      "type": "constructor"
    },
    {
      "constant": true,
      "inputs": [],
      "name": "blockcount",
      "outputs": [
        {
          "internalType": "uint256",
          "name": "",
          "type": "uint256"
        }
      ],
      "payable": false,
      "stateMutability": "view",
      "type": "function"
    },
    {
      "constant": true,
      "inputs": [
        {
          "internalType": "uint256",
          "name": "",
          "type": "uint256"
        }
      ],
      "name": "tasks",
      "outputs": [
        {
          "internalType": "uint256",
          "name": "id",
          "type": "uint256"
        },
        {
          "internalType": "string",
          "name": "hash",
          "type": "string"
        }
      ],
      "payable": false,
      "stateMutability": "view",
      "type": "function"
    },
    {
      "constant": false,
      "inputs": [
        {
          "internalType": "uint256",
          "name": "_id",
          "type": "uint256"
        },
        {
          "internalType": "string",
          "name": "_hash",
          "type": "string"
        }
      ],
      "name": "createHash",
      "outputs": [],
      "payable": false,
      "stateMutability": "nonpayable",
      "type": "function"
    },
    {
      "constant": true,
      "inputs": [
        {
          "internalType": "uint256",
          "name": "id",
          "type": "uint256"
        },
        {
          "internalType": "string",
          "name": "hashToVerify",
          "type": "string"
        }
      ],
      "name": "verifyDocument",
      "outputs": [
        {
          "internalType": "bool",
          "name": "",
          "type": "bool"
        }
      ],
      "payable": false,
      "stateMutability": "view",
      "type": "function"
    }
  ],
  "bytecode": "0x60806040526000805534801561001457600080fd5b50610046620f91426040518060400160405280600681526020016530b131b232b360d11b81525061004b60201b60201c565b610132565b60008054600190810182556040805180820182528581526020808201868152878652848252929094208151815591518051919492936100909390850192910190610097565b5050505050565b828054600181600116156101000203166002900490600052602060002090601f016020900481019282601f106100d857805160ff1916838001178555610105565b82800160010185558215610105579182015b828111156101055782518255916020019190600101906100ea565b50610111929150610115565b5090565b61012f91905b80821115610111576000815560010161011b565b90565b610556806101416000396000f3fe608060405234801561001057600080fd5b506004361061004c5760003560e01c80638d97767214610051578063d40a2c5d146100ed578063dbc1bc19146101ae578063ec35f3d2146101c8575b600080fd5b61006e6004803603602081101561006757600080fd5b5035610277565b6040518083815260200180602001828103825283818151815260200191508051906020019080838360005b838110156100b1578181015183820152602001610099565b50505050905090810190601f1680156100de5780820380516001836020036101000a031916815260200191505b50935050505060405180910390f35b61019a6004803603604081101561010357600080fd5b8135919081019060408101602082013564010000000081111561012557600080fd5b82018360208201111561013757600080fd5b8035906020019184600183028401116401000000008311171561015957600080fd5b91908080601f01602080910402602001604051908101604052809392919081815260200183838082843760009201919091525092955061031d945050505050565b604080519115158252519081900360200190f35b6101b6610434565b60408051918252519081900360200190f35b610275600480360360408110156101de57600080fd5b8135919081019060408101602082013564010000000081111561020057600080fd5b82018360208201111561021257600080fd5b8035906020019184600183028401116401000000008311171561023457600080fd5b91908080601f01602080910402602001604051908101604052809392919081815260200183838082843760009201919091525092955061043a945050505050565b005b600160208181526000928352604092839020805481840180548651600296821615610100026000190190911695909504601f810185900485028601850190965285855290949193929091908301828280156103135780601f106102e857610100808354040283529160200191610313565b820191906000526020600020905b8154815290600101906020018083116102f657829003601f168201915b5050505050905082565b6000816040516020018082805190602001908083835b602083106103525780518252601f199092019160209182019101610333565b6001836020036101000a038019825116818451168082178552505050505050905001915050604051602081830303815290604052805190602001206001600085815260200190815260200160002060010160405160200180828054600181600116156101000203166002900480156104015780601f106103df576101008083540402835291820191610401565b820191906000526020600020905b8154815290600101906020018083116103ed575b505091505060405160208183030381529060405280519060200120141561042a5750600161042e565b5060005b92915050565b60005481565b600080546001908101825560408051808201825285815260208082018681528786528482529290942081518155915180519194929361047f9390850192910190610486565b5050505050565b828054600181600116156101000203166002900490600052602060002090601f016020900481019282601f106104c757805160ff19168380011785556104f4565b828001600101855582156104f4579182015b828111156104f45782518255916020019190600101906104d9565b50610500929150610504565b5090565b61051e91905b80821115610500576000815560010161050a565b9056fea265627a7a723158205f51f2ce4916ec50688cd7a1a0fb363b2610ba7c359a92e0f30a38d97ad3a7ee64736f6c63430005100032",
  "source": "pragma solidity >=0.5.0;\r\ncontract Storing {\r\n    uint public blockcount=0;\r\n    struct HashMake{\r\n        uint id;\r\n        string hash;\r\n    }\r\n    mapping(uint => HashMake ) public tasks;\r\n    constructor() public {\r\n        createHash(1020226,'abcdef');\r\n    }\r\n    function createHash(uint _id,string memory _hash) public {\r\n        blockcount=blockcount+1;\r\n        tasks[_id]=HashMake(_id,_hash);\r\n    }\r\n    \r\n\r\n    function verifyDocument(uint256 id,string memory hashToVerify)view public returns (bool) { \r\n        if(keccak256(abi.encodePacked(tasks[id].hash))== keccak256(abi.encodePacked(hashToVerify))){ \r\n            return true; \r\n        }else{ \r\n            return false; \r\n        }\r\n    } \r\n}",
  "sourcePath": "D:\\paul\\Coding_related\\WebDev\\CertificateHack\\certifications\\contracts\\Storing.sol",
  "compiler": {
    "name": "solc",
    "version": "0.5.16+commit.9c3226ce.Emscripten.clang"
  },
  "schemaVersion": "3.4.3",
  "updatedAt": "2022-08-14T14:03:49.772Z",
  "networkType": "ethereum",
  "devdoc": {
    "methods": {}
  },
  "userdoc": {
    "methods": {}
  }
}